:020000040800F2
:10000000E006002055020008B11B0008611A000834
:10001000AD1B0008DD0400085D1D000800000000A5
:100020000000000000000000000000002D1C00087F
:100030008905000800000000291C0008851C000834
:100040006F0200086F0200086F0200086F020008CC
:100050006F0200086F0200086F0200086F020008BC
:100060006F0200086F0200086F0200086F020008AC
:100070006F0200086F0200086F0200086F0200089C
:100080006F0200086F0200086F0200086F0200088C
:100090006F0200086F0200086F0200086F0200087C
:1000A0006F0200086F0200086F0200086F0200086C
:1000B0006F0200086F0200086F0200086F0200085C
:1000C0006F0200086F0200086F0200086F0200084C
:1000D0006F0200086F0200086F0200086F0200083C
:1000E0006F0200086F0200086F0200086F0200082C
:1000F0006F0200086F0200086F0200086F0200081C
:100100006F0200086F0200086F0200086F0200080B
:100110006F0200086F0200086F0200086F020008FB
:100120006F0200086F0200086F0200086F020008EB
:100130006F0200086F0200086F0200086F020008DB
:100140006F0200086F0200086F0200086F020008CB
:100150006F0200086F0200086F0200086F020008BB
:100160006F0200086F0200086F0200086F020008AB
:100170006F0200086F0200086F0200080000000014
:100180006F0200086F02000800F002F800F052F859
:1001900014A696E8000CB244B344DA4501D100F04D
:1001A00049F8BAE80F000FA696E83000A5EB040561
:1001B00004EB0607AAEB0704A7F101074FEA1515A0
:1001C0004FEA3414A4F10104AC4201D300F032F838
:1001D00013F0010F18BFFB1A43F0010300F001F800
:1001E000DBE71847141D0000341D0000103A24BF3F
:1001F00078C878C1FAD8520724BF30C830C144BF8C
:1002000004680C6070470000704700000023002461
:1002100000250026103A28BF78C1FBD8520728BF16
:1002200030C148BF0B6070471FB501F04FFE1FBDC6
:1002300010B510BD00F0D0F81146FFF7F5FF01F042
:10024000D7FD00F0EEF803B4FFF7F2FF03BC00F0B7
:10025000F5F800000948804709480047FEE7FEE737
:10026000FEE7FEE7FEE7FEE7FEE7FEE7FEE7FEE766
:1002700004480549054A064B70470000491D00081F
:1002800089010008E0000020E0060020E0020020D4
:10029000E002002053EA020C00F069802DE9F04BE7
:1002A0004FF00006002B1FBFB3FA83F503FA05F4E5
:1002B00024FA05F65E4012BF1643B2FA82F502FA3E
:1002C00005F4C5F120051EBF22FA05FC44EA0C0422
:1002D000203556EA044C4FEA144418BF641C4FF012
:1002E00000084FF00009904271EB030C39D300294C
:1002F00019BFB1FA81F701FA07F6B0FA80F700FAF0
:1003000007F6C7F120071EBF20FA07FC46EA0C06D5
:100310002037B6FBF4FCA7EB0507103F07F01F0BD7
:10032000CBF120062CFA06F60CFA0BFB44BFB346C1
:100330000026202FA4BF5E464FF0000B5BEA060CA0
:1003400008BF4FF0010B19EB0B0948EB0608ABFB9C
:10035000027C06FB02CC0BFB03CCC01B71EB0C0137
:10036000C1E70B46024641464846BDE8F08B13B54F
:10037000084318BF4FF0FF300146AFF30080BDE8DF
:100380001C4070474FF0000200B513469446964655
:10039000203922BFA0E80C50A0E80C50B1F1200198
:1003A000BFF4F7AF090728BFA0E80C5048BF0CC046
:1003B0005DF804EB890028BF40F8042B08BF7047A4
:1003C00048BF20F8022B11F0804F18BF00F8012B16
:1003D0007047704770477047754600F02BF8AE467F
:1003E00005006946534620F00700854618B020B541
:1003F000FFF73EFFBDE820404FF000064FF000073A
:100400004FF000084FF0000BAC46ACE8C009ACE878
:10041000C009ACE8C009ACE8C00921F007018D466D
:10042000704710B50446AFF300802046BDE8104089
:10043000FFF709BF0048704710000020014918204D
:10044000ABBEFEE7260002007047000080B582B018
:100450008DF807009DF8072041F60040C4F2020025
:100460004FF4006100F026FD02B080BD80B584B07D
:1004700003908DED020ACDED010A039800F0010012
:10048000FFF7E4FF0398C0F3001000F017F803989B
:10049000C0F3401000F002F804B080BD80B582B017
:1004A0008DF807009DF8072041F60040C4F20200D5
:1004B0004FF4006100F0FEFC02B080BD80B582B058
:1004C0008DF807009DF8072041F60040C4F20200B5
:1004D0004FF4805100F0EEFC02B080BDFFE7FEE774
:1004E00080B582B001900091019800F09FFA0198C8
:1004F0000168486940F00200486101980168486954
:1005000040F0100048610198006846F20041C4F2D2
:100510000001884209D1FFE7019840F27801C2F258
:10052000000108600098486012E00198006846F6F3
:100530000001C4F20001884209D1FFE7019840F2AE
:100540008001C2F20001086000984860FFE7FFE701
:1005500002B080BD80B58CB00B90ADF82A10099226
:10056000ADF82230BDF82A000290002003900490DC
:100570000590BDF8220006900B98099A02A901ABDC
:1005800000F008F80CB080BD7047000072B6FFE7BD
:10059000FEE7000088B00690059104920393069848
:1005A00090F820008DF80700069800688068009099
:1005B0000598806808B9FFE700E0FFE79DF80700AD
:1005C000012806D0FFE79DF80700022840F0808050
:1005D000FFE79DF80300400700280CD4FFE79DF8D3
:1005E00003000007002806D4FFE79DF80300C006BB
:1005F000002864D5FFE70098C0F3016002900299DB
:1006000001208840039908600598806868B9FFE771
:1006100005980168C06840EA415006990968029A45
:1006200001EB0211C1F880010EE005994A68886863
:10063000C96840EAC200084306990968029A01EBBA
:100640000211C1F88001FFE7059800690699096861
:10065000029A01EB0211C1F884010598007D01287E
:100660000CD1FFE706980068029900EB0111D1F860
:10067000840140F48070C1F88401FFE70498406869
:1006800006990968029A01EB0211C1F88C010498DD
:10069000006806990968029A01EB0211C1F8880105
:1006A00006980068029900EB0111D1F8800140F032
:1006B0000100C1F8800100208DF81F0011E00699AB
:1006C000486A40F40010486201208DF81F0008E0DD
:1006D0000699486A40F48020486201208DF81F0086
:1006E000FFE79DF81F0008B07047000080B584B098
:1006F0000290029820B9FFE701208DF80F00E0E09A
:10070000029890F8200020B9FFE7029800F0DEF888
:10071000FFE702980168086840F00100086000F0F7
:10072000E1FB0190FFE7029800684068C007A8B9A4
:10073000FFE700F0D7FB0199401A0B280DD3FFE724
:100740000299486A40F4003048620299052081F815
:10075000200001208DF80F00B3E0E4E70298016863
:10076000086820F00200086000F0BCFB0190FFE781
:100770000298006840688007002815D5FFE700F060
:10078000B1FB0199401A0B280DD3FFE70299486A83
:1007900040F4003048620299052081F820000120D1
:1007A0008DF80F008DE0E3E70298007E012807D165
:1007B000FFE702980168086840F08000086006E0E2
:1007C00002980168086820F080000860FFE702983E
:1007D000407E012807D1FFE702980168086840F0D1
:1007E0004000086006E002980168086820F04000B8
:1007F0000860FFE70298807E012807D1FFE7029892
:100800000168086840F02000086006E0029801686E
:10081000086820F020000860FFE70298C07E0128E9
:1008200007D1FFE702980168086820F0100008600F
:1008300006E002980168086840F010000860FFE7D1
:100840000298007F012807D1FFE702980168086835
:1008500040F00800086006E002980168086820F08F
:1008600008000860FFE70298407F012807D1FFE7F2
:1008700002980168086840F00400086006E00298E9
:100880000168086820F004000860FFE7029B19680F
:100890005A689868D3F80CC040EA0C00D3F810C02E
:1008A00040EA0C005B691843013A1043C8610299A1
:1008B00000204862029A012182F820108DF80F0072
:1008C000FFE79DF80F0004B080BD000080B58CB03C
:1008D0000B9000200A9009900890079006900B98C2
:1008E000006846F20041C4F20001884241D1FFE7AE
:1008F00040F28800C2F20000016801310160006826
:10090000012812D1FFE7FFE70020059043F64000E1
:10091000C4F20200016841F000710160006800F05B
:10092000007005900598FFE7FFE7FFE700200490BF
:1009300043F63000C4F20200016841F00201016098
:10094000006800F0020004900498FFE74FF4407044
:1009500006900220079000200890032009900920AB
:100960000A9040F20040C4F2020006A900F0C6F866
:100970005AE00B98006846F60001C4F20001884274
:1009800051D1FFE7FFE70020039043F64000C4F297
:100990000200016841F080610160006800F0806041
:1009A00003900398FFE740F28800C2F2000001685C
:1009B000013101600068012812D1FFE7FFE7002044
:1009C000029043F64000C4F20200016841F0007159
:1009D0000160006800F0007002900298FFE7FFE7F6
:1009E000FFE70020019043F63000C4F202000168E6
:1009F00041F002010160006800F0020001900198DE
:100A0000FFE7602006900220079000200890032056
:100A1000099009200A9040F20040C4F2020006A9A1
:100A200000F06CF8FFE7FFE70CB080BD80B584B044
:100A30000290029890F8200001282FD1FFE7029938
:100A4000022081F8200002980168086820F0010067
:100A5000086000F047FA0190FFE7029800684068DC
:100A6000C007A8B1FFE700F03DFA0199401A0B2832
:100A70000DD3FFE70299486A40F4003048620299BA
:100A8000052081F8200001208DF80F000FE0E4E739
:100A90000299002048628DF80F0008E00299486A28
:100AA00040F40020486201208DF80F00FFE79DF818
:100AB0000F0004B080BD000080B584B0039000F04A
:100AC00011FA0290039801900198013048B1FFE7B4
:100AD00040F20400C2F2000001780198084401903D
:100AE000FFE7FFE700F0FEF90299401A01998842FA
:100AF00001D2FFE7F6E704B080BD00008EB00D9094
:100B00000C9100200A90099008900B90FFE70B9839
:100B10000F2800F2CC81FFE70B99012088400A9052
:100B20000C9800680A990840099009980A99884227
:100B300040F0B881FFE70C98406800F003000128FE
:100B400007D0FFE70C98406800F0030002282FD17F
:100B5000FFE70D98806808900B984100032000FA89
:100B600001F10898884308900C98C0680B994900D7
:100B700000FA01F108980843089008980D998860D8
:100B80000D98406808900B99012000FA01F108982F
:100B9000884308900C984068C0F300100B9900FA45
:100BA00001F108980843089008980D994860FFE7FC
:100BB0000C98406800F00300032818D0FFE70D9858
:100BC000C06808900B984100032000FA01F10898D2
:100BD000884308900C9880680B99490000FA01F14D
:100BE00008980843089008980D99C860FFE70C988A
:100BF000406800F00300022826D1FFE70D980B990A
:100C00006FF0030202EA51010844006A08900B9851
:100C100000F0070081000F2000FA01F108988843D6
:100C200008900C9800690B9901F00701890000FAFF
:100C300001F108980843089008980D990B9B02EA67
:100C4000530211440862FFE70D98006808900B9862
:100C50004100032000FA01F10898884308900C989D
:100C6000406800F003000B99490000FA01F1089870
:100C70000843089008980D9908600C9880798007BF
:100C8000002800F00E81FFE7FFE70020079043F601
:100C90004400C4F20200016841F480410160006830
:100CA00000F4804007900798FFE70B9820F00300BE
:100CB00043F60801C4F20101405808900B9800F077
:100CC000030081000F2000FA01F108988843089082
:100CD0000D980021C4F20201884203D1FFE70020F1
:100CE00006905EE00D9840F20041C4F20201884295
:100CF00003D1FFE70120059050E00D9840F6000178
:100D0000C4F20201884203D1FFE70220049042E0CE
:100D10000D9840F60041C4F20201884203D1FFE77A
:100D20000320039034E00D9841F20001C4F2020167
:100D3000884203D1FFE70420029026E00D9841F29B
:100D40000041C4F20201884203D1FFE7052001906F
:100D500018E00D9841F60001C4F20201884203D167
:100D6000FFE7062000900AE00D9941F60042C4F228
:100D700002020820914208BF07200090FFE7009878
:100D80000190FFE701980290FFE702980390FFE7C8
:100D900003980490FFE704980590FFE705980690F4
:100DA000FFE70698C0B20B9901F00301890000FA31
:100DB00001F108980843089008980B9921F0030165
:100DC00043F60802C4F20102885043F60840C4F218
:100DD00001000068089009990898884308900C98C9
:100DE0008079C006002805D5FFE7099908980843CF
:100DF0000890FFE7089843F60841C4F20101086033
:100E000043F60C40C4F20100006808900999089864
:100E1000884308900C9880798006002805D5FFE764
:100E20000999089808430890FFE7089843F60C4191
:100E3000C4F20101086043F60440C4F201000068F6
:100E4000089009990898884308900C988079800741
:100E5000002805D5FFE70999089808430890FFE79F
:100E6000089843F60441C4F20101086043F60040CB
:100E7000C4F2010000680890099908988843089016
:100E80000C988079C00728B1FFE7099908980843B2
:100E90000890FFE7089843F60041C4F2010108609A
:100EA000FFE7FFE7FFE70B9801300B902FE60EB04E
:100EB0007047000082B00190ADF802108DF801205B
:100EC0009DF8010028B1FFE7BDF802000199886193
:100ED00005E0BDF80200000401998861FFE702B057
:100EE0007047000040F2DC00C2F20000006870476A
:100EF00040F20400C2F20000027840F2DC01C2F2CB
:100F000000010868104408607047000080B543F68F
:100F10000041C4F20201086840F4007008600868EB
:100F200040F480600860086840F480700860032026
:100F300000F080F80F2000F005F800F03BF80020EA
:100F400080BD000080B582B0009040F20000C2F287
:100F50000000006840F20401C2F200010A784FF478
:100F60007A71B1FBF2F1B0FBF1F000F071FD20B14C
:100F7000FFE701208DF8070018E000980F280DD832
:100F8000FFE700994FF0FF30002200F039F8009899
:100F900040F20801C2F20001086003E001208DF870
:100FA000070003E000208DF80700FFE79DF8070029
:100FB00002B080BD82B0FFE70020019043F64400FC
:100FC000C4F20200016841F480410160006800F44D
:100FD000804001900198FFE7FFE70020009043F672
:100FE0004000C4F20200016841F0805101600068D5
:100FF00000F0805000900098FFE702B070470000BA
:1010000080B586B08DF817000491039200200290FD
:1010100000F0A6FE02909DF9170001900298049935
:10102000039A00F0C7FD0146019800F0A1FE06B04A
:1010300080BD000080B582B00190019800F0BAFE3A
:1010400002B080BD80B584B002900191029820B9B1
:10105000FFE701208DF80F0021E1019843F60041E0
:10106000C4F20201096801F00701884212D9FFE7C2
:10107000019943F60040C4F202000170006800F0DC
:1010800007000199884204D0FFE701208DF80F0086
:1010900005E1FFE702980078800700282AD5FFE7DE
:1010A000029800784007002809D5FFE743F60801B9
:1010B000C4F20201086840F4E0500860FFE70298BB
:1010C00000780007002809D5FFE743F60801C4F2BD
:1010D0000201086840F460400860FFE743F6080139
:1010E000C4F20201086820F0F000029A92681043EE
:1010F0000860FFE702980078C00700286ED0FFE77D
:1011000002984068012811D1FFE743F60000C4F2BD
:101110000200006800F400310020B0EB514F04D110
:10112000FFE701208DF80F00B9E02CE0029840683D
:10113000022805D0FFE702984068032811D1FFE795
:1011400043F60000C4F20200006800F000710020C5
:10115000B0EB516F04D1FFE701208DF80F009EE046
:1011600010E043F60000C4F20200006800F0020143
:101170000020B0EB510F04D1FFE701208DF80F00E4
:101180008DE0FFE7FFE743F60801C4F202010868BB
:1011900020F00300029A526810430860FFF7A2FE95
:1011A0000090FFE743F60800C4F20200006800F078
:1011B0000C0002994968B0EB810F0ED0FFE7FFF7F2
:1011C00091FE0099401A41F28931884204D3FFE729
:1011D00003208DF80F0062E0E4E7FFE7019843F693
:1011E0000041C4F20201096801F00701884212D2ED
:1011F000FFE7019943F60040C4F202000170006865
:1012000000F007000199884204D0FFE701208DF823
:101210000F0044E0FFE702980078400700280CD553
:10122000FFE743F60801C4F20201086820F4E05029
:10123000029AD26810430860FFE70298007800071E
:1012400000280DD5FFE743F60801C4F20201086843
:1012500020F46040029A126940EAC2000860FFE789
:1012600000F022F843F60801C4F202010968C9B28D
:101270000A0941F6E661C0F60001895CC84040F207
:101280000001C2F20001086040F20800C2F2000052
:101290000068FFF757FE00208DF80F00FFE79DF86C
:1012A0000F0004B080BD000080B586B0002005901E
:1012B00004900390029043F60800C4F20200006814
:1012C00000F00C000146019140B1FFE701980428AD
:1012D0000AD0FFE7019808280CD04FE042F2004006
:1012E000C0F2F40002904FE041F60030C0F2B700C7
:1012F000029049E043F60400C4F20200016801F0E4
:101300003F01059100684002002813D5FFE743F62E
:101310000400C4F202000068C0F3881041F60031F6
:10132000C0F2B701A0FB0101059A0023FEF7B2FF4E
:10133000049012E043F60400C4F202000068C0F317
:10134000881042F20041C0F2F401A0FB0101059AAD
:101350000023FEF79FFF0490FFE743F60400C4F26A
:101360000200006800F44031022000EBD13003900D
:1013700004980399B0FBF1F0029005E042F20040BE
:10138000C0F2F4000290FFE7029806B080BD0000B2
:1013900080B586B00490049820B9FFE701208DF84D
:1013A000170050E304980078C007002800F0A580DB
:1013B000FFE743F60800C4F20200006800F00C00EA
:1013C000042813D0FFE743F60800C4F202000068C7
:1013D00000F00C0008281ED1FFE743F60400C4F219
:1013E000020000684002002815D5FFE743F6000020
:1013F000C4F20200006800F400310020B0EB514F4D
:1014000008D0FFE70498406820B9FFE701208DF875
:10141000170018E370E0FFE704984068B0F5803FDC
:1014200009D1FFE743F60001C4F20201086840F465
:101430008030086020E004984068B0F5A02F0DD1FE
:10144000FFE743F60001C4F20201086840F480207F
:101450000860086840F4803008600CE043F6000142
:10146000C4F20201086820F480300860086820F4A3
:1014700080200860FFE7FFE7FFE704984068E8B1D5
:10148000FFE7FFF72FFD0390FFE743F60000C4F2EC
:101490000200006800F400310020B0EB514F0CD185
:1014A000FFE7FFF71FFD0399401A652804D3FFE704
:1014B00003208DF81700C6E2E7E71CE0FFF712FDF6
:1014C0000390FFE743F60000C4F20200006800F456
:1014D00000310020B0EB514F0CD0FFE7FFF702FDC9
:1014E0000399401A652804D3FFE703208DF81700FD
:1014F000A9E2E7E7FFE7FFE7FFE704980078800746
:10150000002840F19680FFE743F60800C4F202008D
:10151000006810F00C0F13D0FFE743F60800C4F288
:101520000200006800F00C0008282CD1FFE743F609
:101530000400C4F2020000684002002823D4FFE740
:1015400043F60000C4F20200006800F0020100202F
:10155000B0EB510F09D0FFE70498C068012804D010
:10156000FFE701208DF817006DE243F60001C4F299
:101570000201086820F0F800049A126940EAC200EB
:101580000860FFE754E00498C06870B3FFE70021EB
:10159000C4F2472101200860FFF7A4FC0390FFE795
:1015A00043F60000C4F20200006800F002010020CF
:1015B000B0EB510F0CD1FFE7FFF794FC0399401AF1
:1015C000032804D3FFE703208DF817003BE2E7E789
:1015D00043F60001C4F20201086820F0F800049A02
:1015E000126940EAC200086021E00021C4F24721EC
:1015F00000200860FFF776FC0390FFE743F6000049
:10160000C4F20200006800F002010020B0EB510FAC
:101610000CD0FFE7FFF766FC0399401A032804D3B8
:10162000FFE703208DF817000DE2E7E7FFE7FFE78C
:10163000FFE704980078000700284BD5FFE70498DF
:10164000406918B3FFE740F68061C4F247210120EA
:101650000860FFF747FC0390FFE743F67400C4F20D
:101660000200006800F002010020B0EB510F0CD125
:10167000FFE7FFF737FC0399401A032804D3FFE77D
:1016800003208DF81700DEE1E7E722E040F68061F5
:10169000C4F2472100200860FFF724FC0390FFE715
:1016A00043F67400C4F20200006800F0020100205A
:1016B000B0EB510F0CD0FFE7FFF714FC0399401A71
:1016C000032804D3FFE703208DF81700BBE1E7E709
:1016D000FFE7FFE7049800784007002840F1CE803C
:1016E000FFE700208DF8070043F64000C4F2020037
:1016F0000068C000002815D4FFE7FFE70020009035
:1017000043F64000C4F20200016841F080510160DC
:10171000006800F0805000900098FFE701208DF8ED
:101720000700FFE747F20000C4F200000068C005B0
:10173000002822D4FFE747F20001C4F20001086844
:1017400040F480700860FFF7CDFB0390FFE747F29D
:101750000000C4F200000068C00500280CD4FFE7B8
:10176000FFF7C0FB0399401A032804D3FFE70320C7
:101770008DF8170067E1EAE7FFE7FFE70498806864
:10178000012809D1FFE743F67001C4F2020108689D
:1017900040F0010008601FE00498806805280DD122
:1017A000FFE743F67001C4F20201086840F004004C
:1017B0000860086840F0010008600CE043F6700122
:1017C000C4F20201086820F001000860086820F0F7
:1017D00004000860FFE7FFE7FFE704988068F8B1BE
:1017E000FFE7FFF77FFB0390FFE743F67000C4F2CB
:1017F0000200006800F002010020B0EB510F0ED192
:10180000FFE7FFF76FFB0399401A41F289318842E5
:1018100004D3FFE703208DF8170014E1E5E71EE08D
:10182000FFF760FB0390FFE743F67000C4F202008D
:10183000006800F002010020B0EB510F0ED0FFE76E
:10184000FFF750FB0399401A41F28931884204D3D3
:10185000FFE703208DF81700F5E0E5E7FFE79DF8C7
:101860000700012809D1FFE743F64001C4F2020155
:10187000086820F080500860FFE7FFE7049880695F
:10188000002800F0DC80FFE743F60800C4F2020005
:10189000006800F00C00082800F08580FFE704983D
:1018A000806902285CD1FFE76021C4F24721002053
:1018B0000860FFF717FB0390FFE743F60000C4F250
:1018C0000200006800F000710020B0EB516F0CD0F6
:1018D000FFE7FFF707FB0399401A032804D3FFE74C
:1018E00003208DF81700AEE0E7E70499C869D1F846
:1018F00020C04B6A8A6A40EA0C0040EA8310D20397
:101900004FF6FF739A43A2F580321043C96A40EA4A
:10191000016043F60401C4F2020108606021C4F2D0
:10192000472101200860FFF7DDFA0390FFE743F647
:101930000000C4F20200006800F000710020B0EB6B
:10194000516F0CD1FFE7FFF7CDFA0399401A032836
:1019500004D3FFE703208DF8170074E0E7E721E0E8
:101960006021C4F2472100200860FFF7BBFA039012
:10197000FFE743F60000C4F20200006800F00071C7
:101980000020B0EB516F0CD0FFE7FFF7ABFA0399E3
:10199000401A032804D3FFE703208DF8170052E014
:1019A000E7E7FFE74AE004988069012804D1FFE7F0
:1019B00001208DF8170046E043F60400C4F202004F
:1019C0000068029004988069012831D0FFE70298EE
:1019D00000F480000499C969884229D1FFE7029880
:1019E00000F03F000499096A884221D1FFE702987C
:1019F00047F6C07108400499496AB0EB811F17D1BE
:101A0000FFE7029800F440300499896AC9034FF651
:101A1000FF729143A1F58031884209D1FFE7029816
:101A200000F070600499C96AB0EB016F04D0FFE761
:101A300001208DF8170006E0FFE7FFE7FFE7002031
:101A40008DF81700FFE79DF8170006B080BD000075
:101A500080B582B00190019800F0EAF802B080BD34
:101A6000FFE7FEE780B582B040F28C00C2F20000D2
:101A7000009046F20041C4F200010160062141607D
:101A8000002101918160C1604FF4003202614FF486
:101A900000124261017641768176C1760177417705
:101AA000FEF724FE18B1FFE7FEF770FDFFE702B076
:101AB00080BD000080B582B040F2B400C2F20000E8
:101AC000009046F60001C4F2000101600621416069
:101AD000002101918160C1604FF4003202614FF436
:101AE00000124261017641768176C17601774177B5
:101AF000FEF7FCFD18B1FFE7FEF748FDFFE702B077
:101B000080BD000080B58CB000200B900A90099039
:101B100008900790FFE70020069043F63000C4F2DB
:101B20000200016841F002010160006800F002005B
:101B300006900698FFE7FFE70020059043F6300087
:101B4000C4F20200016841F001010160006800F088
:101B5000010005900598FFE7FFE70020049043F699
:101B60003000C4F20200016841F0800101600068A9
:101B700000F0800004900498FFE741F60040C4F2B2
:101B8000020003904FF40061019100220292FFF7DE
:101B900091F9019A029903980792012208920992F9
:101BA0000A9107A9FEF7AAFF0CB080BDFFE7FEE788
:101BB000FFE7FEE788B0079006910592079800F0CE
:101BC000070004900498C0F10700052803D3FFE73D
:101BD0000420019004E00498C0F107000190FFE7A1
:101BE0000198039004980430062803D8FFE70020EA
:101BF000009003E0049803380090FFE700980290FB
:101C000006980399012202FA01F101390840029B6A
:101C1000984005999A40013A1140084308B070472E
:101C200081B0009001B0704770470000704700001D
:101C300080B582B0009000980138B0F1807F03D366
:101C4000FFE70120019019E0009801384EF21401DD
:101C5000CEF2000108604FF0FF300F2100F088F84D
:101C60004EF21801CEF20001002008604EF2100280
:101C7000CEF20002072111600190FFE7019802B047
:101C800080BD000080B5FFF733F980BD80B594B00A
:101C900008A83021FEF776FB0020079006900590FB
:101CA00004900390FFE70020029043F64000C4F246
:101CB0000200016841F080510160006800F080502E
:101CC00002900298FFE7FFE70020019047F2000032
:101CD000C4F20000016841F480410160006800F432
:101CE000804001900198FFE7012008904FF4803078
:101CF000099002200E904FF480010F91062110915F
:101D0000A821119112900420139008A8FFF740FB1E
:101D100018B1FFE7FEF73AFCFFE70F20039002201F
:101D20000490002005904FF4A05006904FF480508E
:101D3000079003A80521FFF785F918B1FFE7FEF723
:101D400025FCFFE714B080BD4EF68851CEF20001AD
:101D5000086840F47000086070470000FFE7FEE785
:101D60004EF60C50CEF200000068C0F3022070471F
:101D700082B08DF8070000919DF9070000280AD471
:101D8000FFE7009800019DF907104EF20042CEF2E5
:101D9000000288540BE0009800019DF8071001F044
:101DA0000F014EF61452CEF200028854FFE702B043
:101DB0007047000083B00290029800F00700009086
:101DC0004EF60C51CEF200010868019001984FF6D2
:101DD000FF02104001900198009A40EA0220002280
:101DE000C0F2FA52104301900198086003B07047A6
:101DF00080B584B0002001900390FFF787F8FFF7CB
:101E000045FFFFF77FFEFFF72DFEFFF753FE012092
:101E1000DFED2D0AB0EE600AFEF728FB40F28C00E1
:101E2000C2F2000041F62141C0F60001FEF758FB66
:101E30000198ADF80A00FFE7FFE7BDF90A00B0F529
:101E40007A7F1CDAFFE7BDF80A003230ADF80A00ED
:101E50009DF80B0040F27002C2F2000210709DF873
:101E60000A00507040F28C00C2F200004FF4007182
:101E70000823FEF76FFB3220FEF71EFEDDE7FFE7CB
:101E8000BDF90A0010F57A7F1CDDFFE7BDF80A00F6
:101E90003238ADF80A009DF80B0040F27002C2F231
:101EA000000210709DF80A00507040F28C00C2F2DF
:101EB00000004FF400710823FEF74CFB3220FEF7C0
:101EC000FBFDDDE7B8E700BF00000000F1EE100AFF
:101ED0004FF6FF71C0F2C03120EA010040F04070BF
:101EE000E1EE100A7047000000000000000001024F
:101EF0000304060708090000181F0008000000205E
:101F000010000000EC010008281F0008100000204D
:101F1000D00600000C0200080024F40001000000BC
:081F20001000000000000000A9
:040000050800018965
:00000001FF
